:100000000C9462000C948A000C948A000C948A0070
:100010000C948A000C948A000C948A000C948A0038
:100020000C948A000C948A000C948A000C948A0028
:100030000C948A000C948A000C948A000C948A0018
:100040000C9443030C948A000C9430010C947701B7
:100050000C948A000C948A000C948A000C948A00F8
:100060000C948A000C948A000000000024002700F1
:100070002A0000000000250028002B0000000000DE
:1000800023002600290004040404040404040202DA
:100090000202020203030303030301020408102007
:1000A0004080010204081020010204081020000012
:1000B0000007000201000003040600000000000029
:1000C0000000B40211241FBECFEFD8E0DEBFCDBFC9
:1000D00011E0A0E0B1E0EAE1F9E002C005900D9284
:1000E000A031B107D9F711E0A0E1B1E001C01D9244
:1000F000AB3BB107E1F710E0C4ECD0E004C02297BD
:10010000FE010E948704C23CD107C9F70E94340354
:100110000C948B040C9400006F927F929F92AF928C
:10012000BF92CF92DF92EF92FF920F931F93CF93E4
:10013000DF9300E010E031E0C32ED12CE12CF12C54
:1001400021E0622E712C38C089E060E00E940F042B
:10015000C3010C2E02C0880F991F0A94E2F78EBDCE
:100160000DB407FEFDCF8EB589E061E00E940F045B
:100170008AE060E00E940F049EBC0DB407FEFDCF34
:100180008EB5AEBC0DB407FEFDCF8EB5BEBC0DB4B2
:1001900007FEFDCF8EB58AE061E00E940F0484E186
:1001A00090E00E948B032196C830D10569F60F5F5D
:1001B0001F4F0831110581F0D701C601002E04C080
:1001C000880F991FAA1FBB1F0A94D2F7992EA82E39
:1001D000BA2EC0E0D0E0B8CFDF91CF911F910F9140
:1001E000FF90EF90DF90CF90BF90AF909F907F9067
:1001F0006F9008950E948C0008958AE061E00E944B
:10020000D00389E061E00E94D0038DE061E00E94AC
:10021000D0038BE061E00E94D00380E191E040E8F0
:1002200055E260E070E00E94A7010E941801089565
:100230008AE061E00E940F048AE061E00E94D0033E
:100240008CB580618CBD8CB580648CBD8DE061E027
:100250000E94D0038BE061E00E94D00308950895CE
:100260001F920F920FB60F9211242F933F934F932B
:100270008F939F93EF93FF938091C00082FD19C0ED
:100280004091C60080912E01282F30E02F5F3F4F14
:100290002F73307080912F0190E02817390759F0A3
:1002A000E0912E01F0E0E05FFE4F42A320932E018B
:1002B00002C08091C600FF91EF919F918F914F9165
:1002C0003F912F910F900FBE0F901F901895809126
:1002D0002E0120912F0190E0805C9F4F821B91099D
:1002E0008F739070892B11F00E942F0108951F9237
:1002F0000F920FB60F9211242F938F939F93EF932A
:10030000FF939091300180913101981731F48091E1
:10031000C1008F7D8093C10010C0E0913101F0E0F9
:10032000EE58FE4F20818091310190E001968F734D
:100330009070809331012093C600FF91EF919F91BF
:100340008F912F910F900FBE0F901F901895AF9225
:10035000BF92DF92EF92FF920F931F93CF93DF93A1
:10036000EC017A018B01DD24403081EE580780E0FA
:10037000680780E0780711F0DD24D39491E0A92E7E
:10038000B12CE889F989DD2069F0C5010C8C02C027
:10039000880F991F0A94E2F7808360E079E08DE38B
:1003A00090E005C0108260E874E88EE190E0A8015A
:1003B00097010E94630421503040404050405695C0
:1003C00047953795279580E12030380720F0DD20CC
:1003D00011F0DD24D6CFEC85FD853083EE85FF85D9
:1003E00020831D8EEA89FB89408121E030E0C9012C
:1003F000088C02C0880F991F0A94E2F7482B4083AB
:10040000EA89FB894081C901098C02C0880F991FC4
:100410000A94E2F7482B4083EA89FB894081C901AD
:100420000A8C02C0880F991F0A94E2F7482B408378
:10043000EA89FB8980810B8C02C0220F331F0A944A
:10044000E2F7209528232083DF91CF911F910F9110
:10045000FF90EF90DF90BF90AF900895FC01268D44
:10046000878D30E0205C3F4F281B31092F7330709F
:10047000C9010895FC01968D878D981719F42FEF07
:100480003FEF06C0878DE80FF11D82A1282F30E0D5
:10049000C9010895DC015E969C915E975F968C91F0
:1004A0005F97981719F42FEF3FEF10C05F968C916C
:1004B0005F97FD01E80FF11D92A15F968C915F9708
:1004C0008F5F8F735F968C93292F30E0C901089559
:1004D000DC015D968C915D97882339F05096ED9103
:1004E000FC915197808186FFF9CF5D961C9208950B
:1004F000DC0190968C919097282F30E02F5F3F4F32
:100500002F73307091968C91919790E0281739074E
:10051000C9F390968C919097FD01E80FF11DEE596B
:10052000FF4F608390962C9390975296ED91FC919B
:100530005397208181E090E05B960C905B9702C01E
:10054000880F991F0A94E2F7282B208381E05D969B
:100550008C935D975096ED91FC91519780818064CA
:10056000808381E090E008951092130110921201AF
:1005700088EE93E0A0E0B0E0809314019093150121
:10058000A0931601B093170184E091E090931101BC
:1005900080931001109231018091310180933001DC
:1005A00010922F0180912F0180932E0185EC90E015
:1005B00090931D0180931C0184EC90E090931F01A7
:1005C00080931E0180EC90E09093210180932001A4
:1005D00081EC90E0909323018093220182EC90E0E3
:1005E000909325018093240186EC90E0909327015D
:1005F0008093260184E08093280183E08093290181
:1006000087E080932A0185E080932B0181E080932D
:100610002C010895CF92DF92EF92FF920F931F93D8
:10062000CF93DF937C016B018A01C0E0D0E00FC063
:10063000D6016D916D01D701ED91FC910190F08192
:10064000E02DC7010995C80FD91F015010400115B1
:10065000110571F7CE01DF91CF911F910F91FF909E
:10066000EF90DF90CF900895CF93DF930E94950392
:100670000E94FD00C7E6D1E00E94FA002097E1F356
:100680000E946701F9CF1F920F920FB60F921124AB
:100690002F933F938F939F93AF93BF938091B60116
:1006A0009091B701A091B801B091B9013091BA0110
:1006B0000196A11DB11D232F2D5F2D3720F02D5741
:1006C0000196A11DB11D2093BA018093B6019093AC
:1006D000B701A093B801B093B9018091B201909194
:1006E000B301A091B401B091B5010196A11DB11D56
:1006F0008093B2019093B301A093B401B093B5017C
:10070000BF91AF919F918F913F912F910F900FBE0D
:100710000F901F901895019739F0880F991F880F37
:10072000991F02970197F1F70895789484B5826034
:1007300084BD84B5816084BD85B5826085BD85B585
:10074000816085BDEEE6F0E0808181608083E1E834
:10075000F0E010828081826080838081816080836C
:10076000E0E8F0E0808181608083E1EBF0E080816F
:1007700084608083E0EBF0E0808181608083EAE741
:10078000F0E08081846080838081826080838081CA
:10079000816080838081806880831092C100089589
:1007A000CF93DF93482F50E0CA0186569F4FFC013C
:1007B00034914A575F4FFA018491882369F190E0A0
:1007C000880F991FFC01E859FF4FA591B491FC01D6
:1007D000EE58FF4FC591D491662351F42FB7F8948A
:1007E0008C91932F909589238C93888189230BC0BA
:1007F000623061F42FB7F8948C91932F90958923F0
:100800008C938881832B88832FBF06C09FB7F89471
:100810008C91832B8C939FBFDF91CF910895482FAC
:1008200050E0CA0182559F4FFC012491CA018656AF
:100830009F4FFC0194914A575F4FFA013491332343
:1008400009F440C0222351F1233071F0243028F400
:100850002130A1F0223011F514C02630B1F027303C
:10086000C1F02430D9F404C0809180008F7703C098
:10087000809180008F7D8093800010C084B58F7739
:1008800002C084B58F7D84BD09C08091B0008F7790
:1008900003C08091B0008F7D8093B000E32FF0E023
:1008A000EE0FFF1FEE58FF4FA591B4912FB7F894AC
:1008B000662321F48C919095892302C08C91892B19
:1008C0008C932FBF0895A1E21A2EAA1BBB1BFD011A
:1008D0000DC0AA1FBB1FEE1FFF1FA217B307E4071F
:1008E000F50720F0A21BB30BE40BF50B661F771F77
:1008F000881F991F1A9469F7609570958095909557
:100900009B01AC01BD01CF010895EE0FFF1F0590C3
:0A091000F491E02D0994F894FFCF54
:10091A000000000078020A032E024A023A02680224
:00000001FF
