:100000000C9462000C948A000C948A000C948A0070
:100010000C948A000C948A000C948A000C948A0038
:100020000C948A000C948A000C948A000C948A0028
:100030000C948A000C948A000C948A000C948A0018
:100040000C949D030C948A000C943B010C94820147
:100050000C948A000C948A000C948A000C948A00F8
:100060000C948A000C948A000000000024002700F1
:100070002A0000000000250028002B0000000000DE
:1000800023002600290004040404040404040202DA
:100090000202020203030303030301020408102007
:1000A0004080010204081020010204081020000012
:1000B0000007000201000003040600000000000029
:1000C0000000BF0211241FBECFEFD8E0DEBFCDBFBE
:1000D00011E0A0E0B1E0EAEBF9E002C005900D927A
:1000E000A832B107D9F711E0A8E2B1E001C01D9232
:1000F000A33DB107E1F710E0C4ECD0E004C02297C3
:10010000FE010E94D704C23CD107C9F70E948E03AA
:100110000C94DB040C9400005F926F927F928F929C
:100120009F92AF92BF92CF92DF92EF92FF920F9386
:100130001F93CF93DF9388E291E060E071E00E942B
:100140007B03CC24DD2481E0882E912CA12CB12CC2
:1001500039C060E0CE15DF0509F461E0F801808167
:100160000E945F0421960E5F1F4FC830D10589F7AA
:100170008AE060E00E945F045EBC0DB407FEFDCF24
:100180008EB56EBC0DB407FEFDCF8EB57EBC0DB432
:1001900007FEFDCF8EB58AE061E00E945F040894FF
:1001A000E11CF11CF8E0EF16F10429F007E011E082
:1001B000C0E0D0E0CECF0894C11CD11C88E1C816A5
:1001C000D10481F0D501C4010C2C04C0880F991F03
:1001D000AA1FBB1F0A94D2F7592E682E7A2EEE243E
:1001E000FF24E4CFDF91CF911F910F91FF90EF900B
:1001F000DF90CF90BF90AF909F908F907F906F9047
:100200005F9008951F93CF93DF93C7E0D1E01881EB
:10021000812F61E00E942004812F60E00E945F0432
:10022000229681E0C731D80791F788E291E040E853
:1002300055E260E070E00E94B2010E942301DF916C
:10024000CF911F9108958AE061E00E945F048AE0E7
:1002500061E00E9420048CB580618CBD8CB5806407
:100260008CBD8DE061E00E9420048BE061E00E9483
:100270002004089508951F920F920FB60F92112433
:100280002F933F934F938F939F93EF93FF9380917F
:10029000C00082FD19C04091C60080914601282F00
:1002A00030E02F5F3F4F2F7330708091470190E017
:1002B0002817390759F0E0914601F0E0E85DFE4F5C
:1002C00042A32093460102C08091C600FF91EF91A6
:1002D0009F918F914F913F912F910F900FBE0F9053
:1002E0001F901895809146012091470190E0805C15
:1002F0009F4F821B91098F739070892B11F00E9480
:100300003A0108951F920F920FB60F9211242F9366
:100310008F939F93EF93FF939091480180914901B0
:10032000981731F48091C1008F7D8093C10010C077
:10033000E0914901F0E0E657FE4F208180914901AC
:1003400090E001968F739070809349012093C600CE
:10035000FF91EF919F918F912F910F900FBE0F9072
:100360001F901895AF92BF92DF92EF92FF920F937A
:100370001F93CF93DF93EC017A018B01DD24403092
:1003800081EE580780E0680780E0780711F0DD24EF
:10039000D39491E0A92EB12CE889F989DD2069F088
:1003A000C5010C8C02C0880F991F0A94E2F7808364
:1003B00060E079E08DE390E005C0108260E874E8C9
:1003C0008EE190E0A80197010E94B30421503040D3
:1003D00040405040569547953795279580E120300D
:1003E000380720F0DD2011F0DD24D6CFEC85FD8527
:1003F0003083EE85FF8520831D8EEA89FB8940814D
:1004000021E030E0C901088C02C0880F991F0A94CE
:10041000E2F7482B4083EA89FB894081C901098CB6
:1004200002C0880F991F0A94E2F7482B4083EA899B
:10043000FB894081C9010A8C02C0880F991F0A9468
:10044000E2F7482B4083EA89FB8980810B8C02C04C
:10045000220F331F0A94E2F7209528232083DF918F
:10046000CF911F910F91FF90EF90DF90BF90AF90D1
:100470000895FC01268D878D30E0205C3F4F281BBE
:1004800031092F733070C9010895FC01968D878D55
:10049000981719F42FEF3FEF06C0878DE80FF11D75
:1004A00082A1282F30E0C9010895DC015E969C915D
:1004B0005E975F968C915F97981719F42FEF3FEF37
:1004C00010C05F968C915F97FD01E80FF11D92A11E
:1004D0005F968C915F978F5F8F735F968C93292FB8
:1004E00030E0C9010895DC015D968C915D97882309
:1004F00039F05096ED91FC915197808186FFF9CFAC
:100500005D961C920895DC0190968C919097282F0F
:1005100030E02F5F3F4F2F73307091968C91919701
:1005200090E028173907C9F390968C919097FD01B8
:10053000E80FF11DEE59FF4F608390962C93909732
:100540005296ED91FC915397208181E090E05B966B
:100550000C905B9702C0880F991F0A94E2F7282B32
:10056000208381E05D968C935D975096ED91FC9190
:10057000519780818064808381E090E0089510929B
:100580002B0110922A0188EE93E0A0E0B0E0809366
:100590002C0190932D01A0932E01B0932F018BE19C
:1005A00091E0909329018093280110924901809154
:1005B000490180934801109247018091470180933F
:1005C000460185EC90E0909335018093340184ECF2
:1005D00090E0909337018093360180EC90E0909307
:1005E00039018093380181EC90E090933B01809336
:1005F0003A0182EC90E090933D0180933C0186ECBF
:1006000090E090933F0180933E0184E0809340010D
:1006100083E08093410187E08093420185E08093ED
:10062000430181E0809344010895CF92DF92EF92DD
:10063000FF920F931F93CF93DF937C016B018A018D
:10064000C0E0D0E00FC0D6016D916D01D701ED91F2
:10065000FC910190F081E02DC7010995C80FD91FC9
:10066000015010400115110571F7CE01DF91CF91B6
:100670001F910F91FF90EF90DF90CF900895EF9230
:10068000FF920F931F938C01DC01ED91FC9101907F
:10069000F081E02D6DE009957C01D801ED91FC9190
:1006A0000190F081E02DC8016AE009959C012E0DB2
:1006B0003F1DC9011F910F91FF90EF900895CF93B7
:1006C000DF93EC016115710519F420E030E00FC0F3
:1006D000DB010D900020E9F71197A61BB70BE8810D
:1006E000F9810280F381E02DAD0109959C01C901DA
:1006F000DF91CF910895EF92FF920F931F937C01AA
:100700000E945F038C01C7010E943F03080F191F5D
:10071000C8011F910F91FF90EF900895CF93DF9341
:100720000E94E5030E940201C2E7D1E00E948C0012
:100730002097E1F30E947201F9CF1F920F920FB63A
:100740000F9211242F933F938F939F93AF93BF9357
:100750008091CE019091CF01A091D001B091D101B3
:100760003091D2010196A11DB11D232F2D5F2D3790
:1007700020F02D570196A11DB11D2093D201809329
:10078000CE019093CF01A093D001B093D10180917D
:10079000CA019091CB01A091CC01B091CD010196FD
:1007A000A11DB11D8093CA019093CB01A093CC01F0
:1007B000B093CD01BF91AF919F918F913F912F91B8
:1007C0000F900FBE0F901F901895789484B582609B
:1007D00084BD84B5816084BD85B5826085BD85B5E5
:1007E000816085BDEEE6F0E0808181608083E1E894
:1007F000F0E01082808182608083808181608083CC
:10080000E0E8F0E0808181608083E1EBF0E08081CE
:1008100084608083E0EBF0E0808181608083EAE7A0
:10082000F0E0808184608083808182608083808129
:10083000816080838081806880831092C1000895E8
:10084000CF93DF93482F50E0CA0186569F4FFC019B
:1008500034914A575F4FFA018491882369F190E0FF
:10086000880F991FFC01E859FF4FA591B491FC0135
:10087000EE58FF4FC591D491662351F42FB7F894E9
:100880008C91932F909589238C93888189230BC019
:10089000623061F42FB7F8948C91932F909589234F
:1008A0008C938881832B88832FBF06C09FB7F894D1
:1008B0008C91832B8C939FBFDF91CF910895482F0C
:1008C00050E0CA0182559F4FFC012491CA0186560F
:1008D0009F4FFC0194914A575F4FFA0134913323A3
:1008E00009F440C0222351F1233071F0243028F460
:1008F0002130A1F0223011F514C02630B1F027309C
:10090000C1F02430D9F404C0809180008F7703C0F7
:10091000809180008F7D8093800010C084B58F7798
:1009200002C084B58F7D84BD09C08091B0008F77EF
:1009300003C08091B0008F7D8093B000E32FF0E082
:10094000EE0FFF1FEE58FF4FA591B4912FB7F8940B
:10095000662321F48C919095892302C08C91892B78
:100960008C932FBF0895A1E21A2EAA1BBB1BFD0179
:100970000DC0AA1FBB1FEE1FFF1FA217B307E4077E
:10098000F50720F0A21BB30BE40BF50B661F771FD6
:10099000881F991F1A9469F76095709580959095B6
:1009A0009B01AC01BD01CF010895EE0FFF1F059023
:0A09B000F491E02D0994F894FFCFB4
:1009BA0048656C6C6F3F00020003000400050006E6
:1009CA00000700080009000000000083021503392F
:0809DA00025502450273020000
:00000001FF
